:020000040800F2
:1000000000400020196A0008696A0008696A00084F
:10001000696A0008696A0008696A0008000000004F
:10002000000000000000000000000000696A0008F5
:10003000696A000800000000696A00087938000851
:10004000696A0008696A0008696A00088938000856
:10005000696A0008696A0008696A0008696A000834
:10006000696A000895380008696A0008696A00082A
:10007000696A0008696A0008696A0008696A000814
:10008000696A0008696A0008696A0008696A000804
:10009000696A0008696A0008696A0008696A0008F4
:1000A00000000000696A0008696A0008696A0008BF
:1000B000696A0008696A0008696A0008696A0008D4
:1000C000696A0008696A0008696A0008696A0008C4
:1000D000696A00089D380008696A0008A9380008A4
:1000E000B5380008BD380008696A0008696A000868
:1000F000696A000800000000000000000000000025
:1001000000000000000000000000000000000000EF
:1001100000000000000000000000000000000000DF
:1001200000000000000000000000000000000000CF
:0C01300000000000000000005FF808F173
:1001400010B5054C237833B9044B13B10448AFF311
:1001500000800123237010BD100700200000000064
:10016000E899000808B5034B1BB103480349AFF3F6
:10017000008008BD00000000E89900081407002076
:1001800081F0004102E000BF83F0004330B54FEA48
:1001900041044FEA430594EA050F08BF90EA020FB5
:1001A0001FBF54EA000C55EA020C7FEA645C7FEA48
:1001B000655C00F0E2804FEA5454D4EB5555B8BF6B
:1001C0006D420CDD2C4480EA020281EA030382EADC
:1001D000000083EA010180EA020281EA0303362D6E
:1001E00088BF30BD11F0004F4FEA01314FF4801C41
:1001F0004CEA113102D0404261EB410113F0004F53
:100200004FEA03334CEA133302D0524263EB430309
:1002100094EA050F00F0A780A4F10104D5F1200EA7
:100220000DDB02FA0EFC22FA05F2801841F1000102
:1002300003FA0EF2801843FA05F359410EE0A5F1D6
:1002400020050EF1200E012A03FA0EFC28BF4CF007
:10025000020C43FA05F3C01851EBE37101F00045BD
:1002600007D54FF0000EDCF1000C7EEB00006EEBCA
:100270000101B1F5801F1BD3B1F5001F0CD3490854
:100280005FEA30004FEA3C0C04F101044FEA4452AB
:1002900012F5800F80F09A80BCF1004F08BF5FEA32
:1002A000500C50F1000041EB045141EA050130BD12
:1002B0005FEA4C0C404141EB010111F4801FA4F1B5
:1002C0000104E9D191F0000F04BF01460020B1FA0A
:1002D00081F308BF2033A3F10B03B3F120020CDA42
:1002E0000C3208DD02F1140CC2F10C0201FA0CF020
:1002F00021FA02F10CE002F11402D8BFC2F1200C85
:1003000001FA02F120FA0CFCDCBF41EA0C0190403A
:10031000E41AA2BF01EB0451294330BD6FEA040483
:100320001F3C1CDA0C340EDC04F11404C4F120026E
:1003300020FA04F001FA02F340EA030021FA04F380
:1003400045EA030130BDC4F10C04C4F1200220FAD7
:1003500002F001FA04F340EA0300294630BD21FA15
:1003600004F0294630BD94F0000F83F4801306BFDB
:1003700081F480110134013D4EE77FEA645C18BFCF
:100380007FEA655C29D094EA050F08BF90EA020F66
:1003900005D054EA000C04BF1946104630BD91EA5E
:1003A000030F1EBF0021002030BD5FEA545C05D161
:1003B0004000494128BF41F0004130BD14F58004A0
:1003C0003CBF01F5801130BD01F0004545F0FE4114
:1003D00041F470014FF0000030BD7FEA645C1ABF49
:1003E000194610467FEA655C1CBF0B46024650EA80
:1003F000013406BF52EA033591EA030F41F40021AC
:1004000030BD00BF90F0000F04BF0021704730B531
:100410004FF4806404F132044FF000054FF0000106
:1004200050E700BF90F0000F04BF0021704730B5C7
:100430004FF4806404F1320410F0004548BF40429C
:100440004FF000013EE700BF42004FEAE2014FEAF1
:1004500031014FEA02701FBF12F07F4393F07F4FCC
:1004600081F06051704792F0000F14BF93F07F4FFE
:10047000704730B54FF4607401F0004521F0004141
:1004800020E700BF50EA010208BF704730B54FF0C7
:1004900000050AE050EA010208BF704730B511F0CC
:1004A000004502D5404261EB41014FF4806404F104
:1004B00032045FEA915C3FF4DCAE4FF003025FEA86
:1004C000DC0C18BF03325FEADC0C18BF033202EB0E
:1004D000DC02C2F1200300FA03FC20FA02F001FA68
:1004E00003FE40EA0E0021FA02F11444C1E600BF07
:1004F00070B54FF0FF0C4CF4E06C1CEA11541DBFBA
:100500001CEA135594EA0C0F95EA0C0F00F0DEF884
:100510002C4481EA030621EA4C5123EA4C5350EA69
:10052000013518BF52EA033541F4801143F48013BA
:1005300038D0A0FB02CE4FF00005E1FB02E506F04B
:100540000042E0FB03E54FF00006E1FB03569CF0A0
:10055000000F18BF4EF0010EA4F1FF04B6F5007FA6
:1005600064F5407404D25FEA4E0E6D4146EB060618
:1005700042EAC62141EA55514FEAC52040EA5E50A1
:100580004FEACE2EB4F1FD0C88BFBCF5E06F1ED84B
:10059000BEF1004F08BF5FEA500E50F1000041EB82
:1005A000045170BD06F0004646EA010140EA02002F
:1005B00081EA0301B4EB5C04C2BFD4EB0C0541EA51
:1005C000045170BD41F480114FF0000E013C00F366
:1005D000AB8014F1360FDEBF002001F0004170BD8A
:1005E000C4F10004203C35DA0C341BDC04F11404A3
:1005F000C4F1200500FA05F320FA04F001FA05F22F
:1006000040EA020001F0004221F0004110EBD370FB
:1006100021FA04F642EB06015EEA430E08BF20EA27
:10062000D37070BDC4F10C04C4F1200500FA04F3CA
:1006300020FA05F001FA04F240EA020001F000415C
:1006400010EBD37041F100015EEA430E08BF20EACF
:10065000D37070BDC4F1200500FA05F24EEA020E17
:1006600020FA04F301FA05F243EA020321FA04F046
:1006700001F0004121FA04F220EA020000EBD370FD
:100680005EEA430E08BF20EAD37070BD94F0000FFD
:100690000FD101F00046400041EB010111F4801F31
:1006A00008BF013CF7D041EA060195F0000F18BFE2
:1006B000704703F00046520043EB030313F4801F1E
:1006C00008BF013DF7D043EA0603704794EA0C0FD8
:1006D0000CEA135518BF95EA0C0F0CD050EA4106EE
:1006E00018BF52EA4306D1D181EA030101F000416B
:1006F0004FF0000070BD50EA410606BF1046194693
:1007000052EA430619D094EA0C0F02D150EA01369E
:1007100013D195EA0C0F05D152EA03361CBF1046DF
:1007200019460AD181EA030101F0004141F0FE417E
:1007300041F470014FF0000070BD41F0FE4141F402
:10074000780170BD70B54FF0FF0C4CF4E06C1CEA02
:1007500011541DBF1CEA135594EA0C0F95EA0C0FB7
:1007600000F0A7F8A4EB050481EA030E52EA033572
:100770004FEA013100F088804FEA03334FF0805593
:1007800045EA131343EA12634FEA022245EA1115C0
:1007900045EA10654FEA00260EF000419D4208BF71
:1007A000964244F1FD0404F5407402D25B084FEA1E
:1007B0003202B61A65EB03055B084FEA32024FF4CA
:1007C00080104FF4002CB6EB020E75EB030E22BF27
:1007D000B61A754640EA0C005B084FEA3202B6EBE7
:1007E000020E75EB030E22BFB61A754640EA5C0096
:1007F0005B084FEA3202B6EB020E75EB030E22BF26
:10080000B61A754640EA9C005B084FEA3202B6EB26
:10081000020E75EB030E22BFB61A754640EADC00E5
:1008200055EA060E18D04FEA051545EA16754FEA47
:1008300006164FEAC30343EA52734FEAC2025FEA65
:100840001C1CC0D111F4801F0BD141EA00014FF0F4
:1008500000004FF0004CB6E711F4801F04BF0143C5
:100860000020B4F1FD0C88BFBCF5E06F3FF6AFAEE1
:10087000B5EB030C04BFB6EB020C5FEA500C50F171
:10088000000041EB045170BD0EF0004E4EEA1131F4
:1008900014EB5C04C2BFD4EB0C0541EA045170BDFB
:1008A00041F480114FF0000E013C90E645EA060E3F
:1008B0008DE60CEA135594EA0C0F08BF95EA0C0F6D
:1008C0003FF43BAF94EA0C0F0AD150EA01347FF4B5
:1008D00034AF95EA0C0F7FF425AF104619462CE78C
:1008E00095EA0C0F06D152EA03353FF4FDAE1046EF
:1008F000194622E750EA410618BF52EA43067FF440
:10090000C5AE50EA41047FF40DAF52EA43057FF4CF
:10091000EBAE12E74FF0FF3C06E000BF4FF0010CDA
:1009200002E000BF4FF0010C4DF804CD4FEA410C3E
:100930007FEA6C5C4FEA430C18BF7FEA6C5C1BD00B
:1009400001B050EA410C0CBF52EA430C91EA030F8C
:1009500002BF90EA020F0020704710F1000F91EAE9
:10096000030F58BF994208BF90422CBFD8176FEAB7
:10097000E37040F0010070474FEA410C7FEA6C5C85
:1009800002D150EA013C07D14FEA430C7FEA6C5C8C
:10099000D6D152EA033CD3D05DF8040B704700BFB8
:1009A0008446104662468C461946634600E000BF06
:1009B00001B5FFF7B7FF002848BF10F1000F01BDD8
:1009C0004DF808EDFFF7F4FF0CBF012000205DF8A3
:1009D00008FB00BF4DF808EDFFF7EAFF34BF012028
:1009E00000205DF808FB00BF4DF808EDFFF7E0FFC1
:1009F00094BF012000205DF808FB00BF4DF808ED12
:100A0000FFF7CEFF94BF012000205DF808FB00BF78
:100A10004DF808EDFFF7C4FF34BF012000205DF85A
:100A200008FB00BF4FEA410212F5001215D211D5A2
:100A30006FF47873B3EB625212D94FEAC12343F0DB
:100A4000004343EA505311F0004F23FA02F018BF5D
:100A5000404270474FF00000704750EA013005D126
:100A600011F0004008BF6FF0004070474FF00000E9
:100A7000704700BF4BB942B9002908BF002802D017
:100A80004FF0FF31084600F03BB882B0EC462DE94C
:100A9000005000F01DF8DDF804E002B00CBC704717
:100AA0002DE9704F089E14461D468046894600F089
:100AB00029F804FB01F3A4FB00AB00FB05329344CF
:100AC000B8EB0A0869EB0B09C6E90089BDE8708F2D
:100AD0002DE9704F089E14461D468046894600F059
:100AE00061F900FB05F5A0FB04AB04FB0154A34432
:100AF000B8EB0A0869EB0B09C6E90089BDE8708FFD
:100B0000704700BF00292DE9F00FC0F2A18000243A
:100B1000002BC0F29880154606460F46002B3FD1A9
:100B20008A4258D9B2FA82F34BB1C3F1200201FADA
:100B300003F720FA02F29D4000FA03F61743290C4E
:100B4000B7FBF1F201FB1277A8B200FB02F34FEA08
:100B5000164C4CEA0747BB4209D97F1902F1FF3C0A
:100B600080F00581BB4240F20281023A2F44FF1A15
:100B7000B7FBF1F301FB137100FB03F0B6B246EAD9
:100B80000141884208D9491903F1FF3780F0F1800B
:100B9000884240F2EE80023B43EA0242002303E037
:100BA0008B420AD900231A461046194614B1404216
:100BB00061EB4101BDE8F00F7047B3FA83F8B8F17B
:100BC000000F40F088808B4202D3824200F2E28024
:100BD00000230122E8E712B90123B3FBF2F5B5FACD
:100BE00085F2002A3AD17F1B280C1FFA85FC0123CD
:100BF000B7FBF0F100FB11770CFB01F24FEA16484E
:100C000048EA0747BA4207D97F1901F1FF3802D2F3
:100C1000BA4200F2C4804146BF1AB7FBF0F200FBB3
:100C200012700CFB02FCB6B246EA0040844507D9BC
:100C3000401902F1FF3702D2844500F2AE803A46F5
:100C400042EA0142B0E7E443524263EB430362E706
:100C5000404261EB41014FF0FF3459E79540C2F14A
:100C6000200927FA09F126FA09F99740280CB1FB67
:100C7000F0F800FB18111FFA85FC0CFB08F349EA99
:100C800007094FEA194747EA01418B4206FA02F683
:100C900008D9491908F1FF327AD28B4278D9A8F1E4
:100CA00002082944C91AB1FBF0F300FB13170CFB2F
:100CB00003F21FFA89F949EA0747BA4207D97F19AF
:100CC00003F1FF3160D2BA425ED9023B2F44BF1A12
:100CD00043EA08438CE7C8F1200225FA02F103FA3F
:100CE00008FC27FA02F320FA02F207FA08F741EAB1
:100CF0000C0C4FEA1C49B3FBF9F109FB11331FFA45
:100D00008CFA0AFB01FB17433A0C42EA03439B456A
:100D100005FA08F008D913EB0C0301F1FF3235D2C4
:100D20009B4533D902396344CBEB0303B3FBF9F2A0
:100D300009FB12330AFB02FABFB247EA0347BA457E
:100D400008D917EB0C0702F1FF331BD2BA4519D9AA
:100D5000023A674442EA0145A5FB0001CAEB0707D6
:100D60008F424FF000030AD305D02A461CE76246A3
:100D7000FDE63B4610E706FA08F68642F5D26A1E03
:100D8000002311E71A46E5E70B46A0E71146CBE73B
:100D9000904687E74346424606E7023A50E7023963
:100DA0002F4439E72DE9F00F144605460E46002B77
:100DB00043D18A4253D9B2FA82F757B1C7F120061C
:100DC00020FA06F601FA07F302FA07F400FA07F52B
:100DD0001E43210CB6FBF1F201FB1266A0B200FB30
:100DE00002F32F0C47EA0646B34209D9361902F13D
:100DF000FF3780F0FD80B34240F2FA80023A264489
:100E0000F61AB6FBF1F301FB136100FB03F0ADB280
:100E100045EA0141884208D9091903F1FF3680F0FB
:100E2000E980884240F2E680023B43EA0242002326
:100E300010461946BDE8F00F70478B424CD8B3FA04
:100E400083F6002E4FD18B4202D3824200F2DD8026
:100E5000BDE8F00F0023012210461946704712B971
:100E60000124B4FBF2F4B4FA84F2002A40F0828048
:100E7000091B260CA7B20123B1FBF6F006FB1011EB
:100E800007FB00F24FEA154C4CEA01418A4207D9B0
:100E9000091900F1FF3C02D28A4200F2C880604684
:100EA000891AB1FBF6F206FB121107FB02F7ADB28D
:100EB00045EA0145AF4208D92C1902F1FF3180F013
:100EC0009B80A74240F29880023A42EA00421046D4
:100ED0001946BDE8F00F704700231A461046194620
:100EE000BDE8F00F7047C6F1200522FA05F703FAB6
:100EF00006F421FA05F301FA06FB20FA05F53C4356
:100F00004FEA1448B3FBF8FC08FB1C331FFA84F9C2
:100F100009FB0CFA45EA0B0B4FEA1B4545EA034374
:100F20009A4502FA06F204D91B190CF1FF356FD36A
:100F3000AC46CAEB0303B3FBF8F508FB153309FB1A
:100F400005F91FFA8BFB4BEA0347B94504D93F1952
:100F500005F1FF3362D31D4645EA0C4CACFB02237E
:100F6000C9EB07079F424FF000054AD346D06246BF
:100F70002B465DE79440C2F1200921FA09FC91401B
:100F800020FA09F9260CBCFBF6F806FB18CCA7B230
:100F900007FB08F349EA01094FEA194141EA0C4C01
:100FA000634500FA02F509D91CEB040C08F1FF3285
:100FB0003BD2634539D9A8F10208A444C3EB0C0C19
:100FC000BCFBF6F306FB13C107FB03F21FFA89F91A
:100FD00049EA01418A4207D9091903F1FF3022D2B7
:100FE0008A4220D9023B2144891A43EA084343E755
:100FF0003A4605E7334618E70A4666E7B0409042AE
:10100000B5D20CF1FF32002312E7334632460FE728
:101010009A458DD9ACF1020C23448AE7B9459AD997
:10102000023D274498E70346DEE79046C6E70238CC
:10103000214435E72DE9F8430568C3682A69044669
:1010400022F44052A1681343C26900692B61EB6826
:101050000843616923F416430143114323F00C0351
:101060000B43EB606969A36921F440710B43B2F54E
:10107000004F6B613C4B32D19D424FF0190615D1A8
:1010800001F020FD7043636864275B00B0FBF3F858
:1010900001F018FD70436368B8FBF7F85B004FEA96
:1010A0000818B0FBF3F901F00DFD14E001F0F4FCB9
:1010B0007043636864275B00B0FBF3F801F0ECFC5D
:1010C00070436368B8FBF7F85B004FEA0818B0FBA1
:1010D000F3F901F0E1FC636870435B0031E09D428D
:1010E0004FF0190615D101F0EDFC704363686427D9
:1010F0009B00B0FBF3F801F0E5FC70436368B8FBBC
:10110000F7F89B004FEA0818B0FBF3F901F0DAFC9E
:1011100014E001F0C1FC7043636864279B00B0FBDE
:10112000F3F801F0B9FC70436368B8FBF7F89B0073
:101130004FEA0818B0FBF3F901F0AEFC70436368A6
:101140009B00B0FBF3F6B6FBF7F607FB16994FEAE8
:10115000091909F13209B9FBF7F707F00F0747EA58
:101160000807AF60BDE8F88300380140F8B50446D1
:101170000E46154602F094FA07462268136833407B
:10118000B34221D06B1CF9D0C5B923680320DA68BB
:1011900022F08002DA60DA6822F02002DA60DA688F
:1011A00022F48072DA605A6922F001025A61012346
:1011B00084F83930002384F83830F8BD02F070FA32
:1011C000C01BA842D9D9E0E70020F8BD10B50446FD
:1011D00030B390F8393003F0FF021BB980F83820A3
:1011E00002F0C6FA022384F8393023682046DA6810
:1011F00022F40052DA60FFF71DFF236800201A690D
:1012000022F490421A615A6922F02A025A61DA687D
:1012100042F40052DA600123E06384F8393010BDF3
:10122000012010BD70B51E4690F839300446DBB27F
:10123000012B0D4601D0222B4ED1002D4AD0002A81
:1012400048D094F83830012B46D0012384F8383048
:101250000023E36394F83930A284222B0CBF32239D
:10126000122384F83930E284E38C03B3013BE38436
:10127000A3682046B3F5805F4FF0800132460DD160
:10128000FFF774FF08B1032070BD2A882368C2F3FA
:1012900008025A60236943B90235E5E7FFF766FFA4
:1012A0000028F0D123682A785A600135DCE720460F
:1012B00040213246FFF75AFF0028E4D194F8393034
:1012C000322B0CBF2223012384F83930002384F809
:1012D000383070BD012070BD022070BD70B51E4653
:1012E00090F839300446DBB2012B0D4601D0122BA9
:1012F00050D1002D4CD0002A4AD094F83830012B20
:1013000048D0012384F838300023E36394F839305F
:10131000A285122B0CBF3223222384F83930E285B8
:10132000E38D4BB3013BE385A3682046B3F5805FB3
:101330004FF02001324611D1FFF718FF08B103200A
:1013400070BD236822695B6822B9C3F3080325F8DE
:10135000023BE5E7DBB225F8013BE1E7FFF706FFDB
:101360000028ECD1226821696B1C526809B102F097
:101370007F022A701D46D3E794F839300020322BC3
:101380000CBF1223012384F8393084F8380070BD73
:10139000012070BD022070BD036813B519680446B2
:1013A000C907DA6805D5D20503D5C26B42F0010240
:1013B000C26319685A69880702F0010204D51AB19C
:1013C000E16B41F00401E1631968490704D51AB1E2
:1013D000E16B41F00201E1631968080704D51AB115
:1013E000E26B42F00802E2631968DA68890642D5C6
:1013F000900640D594F8392002F0EF02222A3AD123
:10140000A2682169B2F5805FA26A0BD15B6821B93D
:10141000C3F3080322F8023B02E0DBB222F8013BEF
:10142000A2620AE019B9511CA1625B6804E05B6822
:10143000511CA16203F07F031370E38D013B9BB24B
:10144000E385C3B92368DA6822F02002DA6094F8F1
:101450003920322A01D1122308E0DA6822F480729E
:10146000DA605A6922F001025A61012384F83930A6
:10147000204602F00DFE23681968DA68090628D5AF
:10148000100626D594F8392002F0DF02122A20D166
:10149000A268B2F5805F226A0AD11188C1F30801FF
:1014A0005960216909B9023200E00132226203E089
:1014B000511C216212785A60E28C013A92B2E284A5
:1014C0003AB9DA6822F08002DA60DA6842F0400263
:1014D000DA601968DA68490610D552060ED5DA685E
:1014E000204622F04002DA6094F83930322B0CBFEB
:1014F0002223012384F8393002F0B4FDE36B5BB1A1
:10150000236820461A6801925B680193019B0123BE
:1015100084F8393005F0DAF802B010BD10B5044691
:10152000002832D090F8513003F0FF021BB980F848
:10153000502002F007FA6168A06802230843E168BE
:1015400084F85130084321692368084361691A68A7
:101550000843E16922F040020843216A1A60084307
:10156000A269A16A014302F4007001431960120CE0
:10157000616A02F004021143E26A596000201A61B4
:101580000123606584F8513010BD012010BD2DE9A4
:10159000F04104460E4690461D4602F081F807468B
:1015A000B8F1000F3AD1226893683340B3420ED0AD
:1015B000691CF9D07DB102F073F8C01BA842F2D9C2
:1015C00009E06B1C06D193683340B342F9D0002088
:1015D000BDE8F081EDB923685A6822F0E0025A6054
:1015E0001A6822F040021A60A26AB2F5005F07D1C1
:1015F0001A6822F400521A601A6842F400521A6003
:10160000012384F85130002384F850300320BDE8D2
:10161000F08102F045F8C01BA842DCD82268D2E76E
:1016200073B504460020ADF8060094F85100069DFD
:10163000012804D094F85100222840F0408100296C
:1016400000F03B81002A00F03881002B00F035814A
:1016500094F85000012800F03281012084F85000F5
:1016600094F85100A66A012804BF322084F8510082
:101670000020B6F5005FA2636065A387E38721635E
:10168000A386E386A064E064226807D1106820F492
:1016900000501060106840F4005010601068400660
:1016A00003D4106840F040001060E068B0F5006FAF
:1016B00060685ED120B1B0F5827F07D1012B05D1E2
:1016C00031F8020B013BD0602163E386E38E002BEF
:1016D00030D1B6F5005F03D1136843F48053136033
:1016E00020460121002237E02046022100222B461D
:1016F000FFF74DFF002840F0BF80226B236832F8CF
:10170000021BD9602263E28E013A92B2E286AAB14C
:101710002046012100222B46FFF739FF002840F028
:10172000AB802368DA68A36B23F8022BA363E38FF3
:10173000013BE387E38E002BD6D108E0A26AB2F525
:10174000005FE5D11A6842F480521A60E0E76268EF
:10175000002A70D1204601212B46FFF718FF0028F0
:1017600040F08A802368DA68A36B23F8022BA36316
:101770005EE020B1B0F5827F07D1012B05D1481C76
:1017800020630978013BD160E386E38E002B34D1DE
:10179000B6F5005F03D1136843F48053136020460D
:1017A000012100222B46FFF7F2FE002864D1A36B33
:1017B0003BE02046022100222B46FFF7E8FE0028EE
:1017C0005AD1226B2368511C21631278DA60E28EB1
:1017D000013A92B2E286A2B12046012100222B46B4
:1017E000FFF7D5FE002847D1A36B5A1CA2632268DD
:1017F000D2681A70E38F013BE387E38E002BD8D1C8
:1018000008E0A26AB2F5005FE6D11A6842F480529D
:101810001A60E1E7626872B9204601212B46FFF7A2
:10182000B6FE48BBA36B5A1CA2632268D2681A702A
:10183000E38F013BE387A36AB3F5005F11D1204634
:10184000012100222B46FFF7A2FE18B1636D43F081
:10185000020310E02368DB689BB2ADF80630BDF8E8
:1018600006302046802101222B46FFF790FE28B14A
:10187000636D43F020036365032021E0A36A012226
:10188000B3F5005F84F8512013D123689968C90625
:101890000FD5616D41F002016165196821F40051B5
:1018A0001960196841F40051196084F8500010461D
:1018B00006E0002384F8503002E0012000E002201E
:1018C00002B070BD036810B51B680C46C3F3054039
:1018D0000870C3F30621617003F07F0103F48003F5
:1018E0001B0CA170E37052B900F0BFFA2070607851
:1018F00000F0BBFA6070A07800F0B7FAA07000208A
:1019000010BD00002DE9F843037F0546012B0C466E
:101910004FF0020000F0A88001232B772B68687736
:101920009B6822BB13F0400308BFCB70087800F01F
:10193000C7F98046607800F0C3F90746A07800F048
:10194000BFF90646207D94F8039000F0B9F9E268EB
:1019500023694FEA0949134343EA090949EA06069C
:1019600046EA084646EA072646EA00661BE013F008
:10197000400303D0087800F078FA00E0CB70207DB7
:1019800000F073FAE2682369A178134326780B43C9
:1019900043EA0646637846EA0326E37846EA0346C6
:1019A000237D46EA03662B68CA225A6253225A6292
:1019B000A269B2F5807F9A681FD122F480729A6082
:1019C000DA68D2B262F4C072DA6001F069FE0746EA
:1019D0002B68DA6812F0010406D101F061FEC01B29
:1019E000B0F57A7FF4D91EE0DE619A6842F4807225
:1019F0009A609A6842F4805225E022F400729A605C
:101A0000DA68D2B262F42072DA6001F049FE074669
:101A10002B68DA6812F002040DD101F041FEC01B00
:101A2000B0F57A7FF4D92B68FF2203205A626877D9
:101A30002C77BDE8F8831E629A6842F400729A60BF
:101A40009A6842F400529A60084B00201A6842F4E7
:101A500000321A609A6842F400329A602B68FF22C2
:101A60005A6201236B772877BDE8F88300040140B0
:101A700038B503680446DA6822F0A002DA6001F0A3
:101A80000FFE05462368DB689B0607D401F008FEBD
:101A9000401BB0F57A7FF5D9032038BD002038BD52
:101AA000037F2DE9F041012B04460F4616464FF007
:101AB00002005CD0012323772368CA2260775A6230
:101AC00053225A629B685A0508D423689A6822F404
:101AD00080629A6001F0E4FD804615E001F0E0FDCF
:101AE00005462368DB685B07EFD501F0D9FD401B95
:101AF000B0F57A7FF5D92368FF225A6203200023CC
:101B000060772377BDE8F0812368DD6815F0040570
:101B10000ED101F0C5FDC8EB0000B0F57A7FF3D916
:101B20002368FF2203205A6260772577BDE8F081A1
:101B30005F619A68002022F007029A609A68164353
:101B40000C4A9E60116841F480111160916841F463
:101B5000801191609A6842F480429A609A6842F4D7
:101B600080629A60FF225A62012363772077BDE882
:101B7000F08100BF0004014070470000036810B509
:101B8000DB6804465B0507D5FFF7F6FF2368DA68D4
:101B9000D2B262F49062DA60034B4FF480125A6161
:101BA0000123637710BD00BF0004014070470000AF
:101BB000036810B59A680446D2040AD5DB68D905D3
:101BC00007D502F0C7FB2368DA68D2B262F4C072AC
:101BD000DA6023689A6892040BD5DB689B0508D508
:101BE0002046FFF7E3FF2368DA68D2B262F420727E
:101BF000DA60034B4FF400325A610123637710BD62
:101C00000004014038B503680446DA68520601D57D
:101C1000002038BD4FF0FF32DA6001F041FD05468B
:101C20002368DB685B06F3D401F03AFD401BB0F596
:101C30007A7FF5D9032038BD10B5044600283DD081
:101C4000437F03F0FF0213B9027701F0F7FE02238E
:101C500063772368CA225A6253225A622046FFF7EA
:101C6000D1FF236820B1FF225A620423637725E065
:101C70009A6822F4E00222F040029A609968626851
:101C800011432269114362690A439A60E2681A614A
:101C90001969A26841EA02421A61DA6822F08002F8
:101CA000DA601A6C22F480221A64196CA2690A4361
:101CB0001A64FF225A620123637710BD012010BD10
:101CC0000023092803D90A380133C0B2F9E740EAF2
:101CD0000310C0B270472DE9F843037F0446012B7F
:101CE0000D464FF0020060D0012323772368607710
:101CF000087891F801808E789B68AAB913F04003A8
:101D000008BFCB70FFF7DCFF81464046FFF7D8FFE6
:101D100080463046FFF7D4FFEF7840EA074040EABC
:101D2000094747EA08270BE013F0400308BFCB70D0
:101D30004FEA082848EA0040CF78064346EA0747BA
:101D40002368CA225A6253225A622046FFF75AFF7A
:101D50002368064630B1FF225A62042363770023CA
:101D600023771CE007F07F3222F0FE421A609A6867
:101D7000204622F480229A6099686A680A43A9681A
:101D80000A439A60DA6822F08002DA60FFF770FE98
:101D90002368FF225A6228B1042363772677012043
:101DA000BDE8F883012363772077BDE8F8832DE948
:101DB000F843037F0446012B0D464FF0020052D03A
:101DC0000123237760774B78C8788F780E78002AC4
:101DD00042D1DA0603D523F010030A334B70FFF724
:101DE0006FFF81466878FFF76BFF80463846FFF744
:101DF00067FF40EA463040EA094545EA082523687E
:101E0000CA225A6253225A622046FFF7FBFE236819
:101E1000064630B1FF225A620423637700232377FA
:101E200012E025F07F4222F0C0025A60DA682046B4
:101E300022F08002DA60FFF71BFE2368FF225A625D
:101E400028B10423637726770120BDE8F8830123B6
:101E500063772077BDE8F8831D0245EA00453D43DE
:101E600045EA4635CBE7BDE8F883020900F00F03E9
:101E70000A2000FB0230C0B27047036870B55B688F
:101E80000C46C3F30740C3F3042603F03F05C3F336
:101E90004233C8704E708D700B7052B9FFF7E5FF7A
:101EA000E0703046FFF7E1FF60702846FFF7DDFF86
:101EB000A070002070BD0000036837B5DD07044640
:101EC00071D53A4B5A6A42F080525A625B6A03F00B
:101ED00080530193019B364B1A6842F480721A605A
:101EE00001F0DEFB0546324B1B68D80506D401F035
:101EF000D7FB401B6428F6D9032055E02B4B6268C2
:101F0000596B02F4403201F4403191424BD02268C7
:101F1000D10748D55B6B4FF4000023F4403190FAB1
:101F2000A0F0244AB0FA80F0012542F820504FF486
:101F3000000090FAA0F00025B0FA80F042F820509E
:101F40001A4A51639A050ED46168184B01F4403265
:101F5000B2F5403F24D1186801F0C04120F0C040E4
:101F6000014319601CE001F09BFB05464FF4007330
:101F700093FAA3F30D4B5A6B4FF4007393FAA3F348
:101F8000B3FA83F303F01F0322FA03F3DB07DBD476
:101F900001F086FB41F28833401B9842E6D9ABE75B
:101FA000596B0A435A63002003B030BD0038024029
:101FB000007000408006474237B51A4C0546A368BA
:101FC00013F0F00F1AD1636ADB0002D500F00EFEA9
:101FD0000EE0636A43F080536362636A03F08053E8
:101FE0000193019B00F002FE636A23F08053636259
:101FF000B0F5C05F02D1B5F5404F0CD000230A4ABE
:10200000116821F0010119431160106800F001000E
:10201000584003B030BD044B1A6842F004021A6005
:102020000123ECE700380240003C0240036837B56A
:10203000DA07044604D423689B0700F1A1801DE160
:10204000AE4B9A6802F00C02082A07D09A6802F098
:102050000C020C2A19D19B68DD0316D54FF400330E
:1020600093FAA3F3A54B1A684FF4003393FAA3F342
:10207000B3FA83F303F01F0322FA03F3D807DAD588
:102080006368002BD7D101203EE39C4B1A6822F4F1
:1020900080321A601A6822F480221A6001F000FB74
:1020A00005464FF4003393FAA3F3944B1A684FF4A8
:1020B000003393FAA3F3B3FA83F303F01F0322FA76
:1020C00003F3D90706D501F0EBFA401B6428E8D9E1
:1020D000032019E36268894B012A12D05AB91A68A1
:1020E00022F480321A601A6822F480221A6001F009
:1020F000D7FA054631E0052A1A6806D142F4802253
:102100001A601A6842F4803205E022F480321A60C4
:102110001A6822F480221A6001F0C2FA05464FF4D0
:10212000003393FAA3F3754B1A684FF4003393FA14
:10213000A3F3B3FA83F303F01F0322FA03F3DA07DE
:102140003FF579AF01F0ACFA401B6428E7D9BFE74F
:1021500001F0A6FA401B6428BAD84FF4003393FA72
:10216000A3F3664B1A684FF4003393FAA3F3B3FA60
:1021700083F303F01F0322FA03F3DB07E8D45AE7E3
:102180005E4B9A6802F00C02042A07D09A6802F0AB
:102190000C020C2A17D19B68D80314D4022393FA9B
:1021A000A3F3564B1A68022393FAA3F3B3FA83F30B
:1021B00003F01F0322FA03F3D9072BD5E368012BA1
:1021C0007FF461AF26E0E26801239AB393FAA3F3A8
:1021D000B3FA83F39B0003F1844303F58E030122DA
:1021E0001A6001F05DFA0546022393FAA3F3434B0C
:1021F0001A68022393FAA3F3B3FA83F303F01F03DD
:1022000022FA03F3DA0705D401F04AFA401B6428E6
:10221000EAD95DE7394B4FF4F8515A6891FAA1F1C8
:102220002369B1FA81F18B4022F4F8521343334A07
:10223000536023E093FAA3F3B3FA83F39B0003F113
:10224000844303F58E0300221A6001F029FA054643
:10225000022393FAA3F3294B1A68022393FAA3F3F8
:10226000B3FA83F303F01F0322FA03F3DB0705D568
:1022700001F016FA401B6428EAD929E72368DD0635
:1022800040F1C1801D4B9B6813F00C0F54D14FF4EB
:10229000007393FAA3F3194B1A684FF4007393FA7F
:1022A000A3F3B3FA83F303F01F0322FA03F3D8076F
:1022B00003D5A369002B3FF4E6AE104D206A6B688E
:1022C00003F4604398421BD9FFF776FE00287FF4A1
:1022D000DAAE6A68236A22F4604213436B606A686C
:1022E0004FF07F4191FAA1F1E369B1FA81F18B409E
:1022F00022F07F421343014A536019E00038024044
:102300006B684FF07F4123F4604303436B606A685E
:1023100091FAA1F1E369B1FA81F18B4022F07F4299
:102320001343B04A5360FFF747FE00287FF4ABAE7B
:10233000002001F08FF966E0A2694FF48073002A53
:102340003BD093FAA3F3B3FA83F39B0003F18443E6
:1023500003F58E0301221A6001F0A2F905464FF43D
:10236000007393FAA3F39F4B1A684FF4007393FA28
:10237000A3F3B3FA83F303F01F0322FA03F3D9079D
:1023800005D401F08DF9401B6428E8D9A0E6954BEF
:10239000226A596821F460410A435A605A684FF032
:1023A0007F4191FAA1F1E369B1FA81F18B4022F00A
:1023B0007F4213438B4A536025E093FAA3F3B3FAA9
:1023C00083F39B0003F1844303F58E0300221A601C
:1023D00001F066F905464FF4007393FAA3F3814BBD
:1023E0001A684FF4007393FAA3F3B3FA83F303F07C
:1023F0001F0322FA03F3DA0705D501F051F9401B58
:102400006428E8D964E623681B0704D423685D07C1
:1024100040F1978043E061690122734BF9B192FA70
:10242000A2F20121B2FA82F243F8221001F038F947
:102430000546022393FAA3F36A4B5A6B022393FADD
:10244000A3F3B3FA83F303F01F0322FA03F3D807CD
:10245000DCD401F025F9401B6428EAD938E692FA69
:10246000A2F20021B2FA82F243F8221001F018F928
:102470000546022393FAA3F35A4B5A6B022393FAAD
:10248000A3F3B3FA83F303F01F0322FA03F3D9078C
:10249000BCD501F005F9401B6428EAD918E6514B78
:1024A0005A6A42F080525A625B6A03F08053019389
:1024B000019B4E4B1A6842F480721A6001F0F0F8EA
:1024C00005464A4B1B68DA053FD5464B5A6B22F44A
:1024D00080725A635A6B22F480625A6301F0E0F80A
:1024E00005464FF4007393FAA3F33E4B5A6B4FF437
:1024F000007393FAA3F3B3FA83F303F01F0322FAF2
:1025000003F313F0010F374B25D1A268012A2AD11A
:102510005A6B42F480725A6301F0C2F805464FF4D8
:10252000007393FAA3F32F4B5A6B4FF4007393FA93
:10253000A3F3B3FA83F303F01F0322FA03F3DB07D9
:102540002CD5636A002B53D1AAE001F0A9F8401BF7
:102550006428B6D9BCE501F0A3F841F28833401BEA
:102560009842BED9B4E55AB95A6B22F480725A63C4
:102570005A6B22F480625A6301F092F805461DE01E
:10258000052A5A6B03D142F480625A63C0E722F4F1
:1025900080725A635A6B22F48062BCE701F080F8C3
:1025A00041F28833401B9842B9D991E501F078F89F
:1025B00041F28833401B98423FF68AAD4FF40073D6
:1025C00093FAA3F3074B5A6B4FF4007393FAA3F3F8
:1025D000B3FA83F303F01F0322FA03F3D807E5D419
:1025E000AFE700BF0038024080064742007000405D
:1025F000464A926802F00C020C2A3FF444AD022BCA
:102600004FF080735AD193FAA3F3B3FA83F39B008C
:1026100003F1844303F58E0300221A6001F040F8B1
:1026200005464FF0007393FAA3F3384B1A684FF046
:10263000007393FAA3F3B3FA83F303F01F0322FAB0
:1026400003F3D9072ED4314BE16AA26A9868246B50
:102650000A43224320F47D0002439A604FF08073C6
:1026600093FAA3F3B3FA83F39B0003F1844303F5D6
:102670008E0301221A6001F013F804464FF0007334
:1026800093FAA3F3214B1A684FF0007393FAA3F364
:10269000B3FA83F303F01F0322FA03F3DA0707D533
:1026A000002031E000F0FCFF401B6428B9D90FE5A1
:1026B00000F0F6FF001B6428E0D909E593FAA3F3C4
:1026C000B3FA83F39B0003F1844303F58E030022E6
:1026D0001A6000F0E5FF04464FF0007393FAA3F38D
:1026E0000A4B1A684FF0007393FAA3F3B3FA83F31B
:1026F00003F01F0322FA03F3DB07D1D500F0D0FF6C
:10270000001B6428E8D9E3E403B030BD0038024080
:10271000AD4B70B51A68044602F0010291420D46B5
:1027200040F2A580012903D11A6842F004021A6020
:102730001A6822F001022A431A601B6803F00103A1
:10274000AB4201D0012070BD23689A0706D59F4A8D
:10275000A168906820F0F00001439160DB070BD482
:1027600023685E0740F12081984AE168906820F470
:10277000E0600143916017E16368022B08D14FF4D8
:10278000003292FAA2F2914A11684FF400321BE033
:10279000032B08D14FF0007292FAA2F28B4A116813
:1027A0004FF0007210E0012B06D1022292FAA2F241
:1027B000864A1168022207E04FF4007292FAA2F2F0
:1027C000824A11684FF4007292FAA2F2B2FA82F2CF
:1027D00002F01F0221FA02F2D507B3D57B4A9168B5
:1027E00021F003010B43936000F05AFF6368054634
:1027F000022B0ED1754B9B6803F00C03082BAFD056
:1028000000F04EFF41F28833401B9842F2D903207A
:1028100070BD032B0DD16D4B9B6803F00C030C2B8B
:102820009ED000F03DFF41F28833401B9842F2D920
:10283000EDE7012B0CD0654B9B6813F00C0F0ED10C
:102840008EE700F02DFF41F28833401B9842DED81E
:102850005E4B9B6803F00C03042BF2D180E700F081
:102860001FFF41F28833401B9842E4D9CFE7036849
:10287000980706D5554AA168906820F0F0000143FA
:102880009160D90708D4012D4F4B40F081801A6820
:1028900042F004021A607BE06368022B08D14FF417
:1028A000003292FAA2F2494A11684FF400321BE05A
:1028B000032B08D14FF0007292FAA2F2434A11683A
:1028C0004FF0007210E0012B06D1022292FAA2F220
:1028D0003E4A1168022207E04FF4007292FAA2F217
:1028E0003A4A11684FF4007292FAA2F2B2FA82F2F6
:1028F00002F01F0221FA02F2D2077FF523AF334A1A
:10290000916821F003010B43936000F0C9FE6368F6
:102910000646022B0DD12D4B9B6803F00C03082BB0
:10292000B1D000F0BDFE41F28833801B9842F2D94D
:102930006DE7032B0DD1254B9B6803F00C030C2B8B
:10294000A1D000F0ADFE41F28833801B9842F2D94D
:102950005DE7012B0DD01D4B9B6813F00C0F0FD1C1
:1029600091E700F09DFE41F28833801B98423FF6CC
:102970004EAF164B9B6803F00C03042BF1D182E79A
:1029800000F08EFE41F28833801B9842E3D93EE787
:102990001A6822F001022A431A601B6803F001033F
:1029A000AB427FF4CFAEDBE61B0707D5074B2169AF
:1029B0009A6822F4605242EAC1029A60002000F054
:1029C00049FE002070BD00BF003C024000380240BC
:1029D0001F498B6803F00C02082A36D00C2A03D05A
:1029E000042A22D11B4870474FF4701292FAA2F2C7
:1029F00003F47011B2FA82F221FA02F216498A5CEB
:102A00004FF4400191FAA1F1B1FA81F103F44003CE
:102A1000CB401249CB5C0E498968C9034CBF1048B2
:102A20000C485043B0FBF3F0704748684FF46043E4
:102A300093FAA3F3B3FA83F300F46040D8404FF461
:102A40000043013003FA00F070470548704700BFAB
:102A5000003802400024F40040A2000859A20008F7
:102A600000366E0108B5FFF7B3FF084BF0229B68F4
:102A700092FAA2F2B2FA82F203F0F003D340044ACF
:102A8000D35CD840034B186008BD00BF003802403B
:102A900049A200080000002008B5FFF7E3FF074B3C
:102AA0004FF4E0629B6892FAA2F2B2FA82F203F467
:102AB000E063D340024AD35CD84008BD00380240EE
:102AC00049A2000808B5FFF7CDFF074B4FF460524D
:102AD0009B6892FAA2F2B2FA82F203F46053D340F6
:102AE000024AD35CD84008BD0038024049A2000821
:102AF0001F2303602D4B1A68510301D5052204E002
:102B00001A6812F4803218BF012242601B684FF429
:102B1000F85213F0010318BF0123C360234B5B6815
:102B200092FAA2F2B2FA82F203F4F853D3400361AC
:102B30001E4B1A6812F4807218BF012282615B6812
:102B40004FF07F4292FAA2F2B2FA82F203F07F4390
:102B5000D340C361154B5A6802F4604202625A6B5B
:102B6000520501D5052304E05B6B13F4807318BF95
:102B7000012383600D4B5A6B12F0010218BF012232
:102B800042611B68DB014CBF022301234362074BF8
:102B90009A6802F4803282629A6802F47012C26209
:102BA0009B6803F440030363704700BF0038024092
:102BB0000F2303600B4B9A6802F0030242609A688D
:102BC00002F0F00282609A6802F4E062C2609B68E0
:102BD00003F46053DB080361034B1B6803F001033C
:102BE0000B60704700380240003C0240024B1868FE
:102BF00000F4C050704700BF007000404FF4806385
:102C000093FAA3F3B3FA83F39B0003F1844303F530
:102C1000602301221A6070474FF4007393FAA3F304
:102C2000B3FA83F39B0003F1844303F5602301228D
:102C30001A6070470B4B01291A6822F0030240EA20
:102C400002001860084B1A6942F004021A6101D1AF
:102C500030BF02E040BF20BF20BF1A6922F004024B
:102C60001A6170470070004000ED00E02DE9F34765
:102C70000F68002337FA03F200F0C0804FF001081C
:102C800008FA03F818EA070500F0B6804C6824F04B
:102C90001006022E16D103F007094FEA89094FF0FA
:102CA0000F0A0AFA09FA4FEAD30C00EB8C0CDCF895
:102CB000202022EA0A0A0A6902FA09F94AEA090204
:102CC000CCF820205A004FF0030C0CFA02FC04F060
:102CD000030909FA02F9D0F800A06FEA0C0C0CEA1B
:102CE0000A0A013E4AEA0909012EC0F8009010D8EC
:102CF00086680CEA0609CE68964049EA06068660B0
:102D0000466826EA0808C4F300169E4048EA06060C
:102D10004660C6680CEA060C8E6896404CEA0602CD
:102D2000C260E20068D503F0030C4FEA8C0C4FF050
:102D30000F0808FA0CF8334A166A46F001061662C4
:102D4000126A23F0030602F0010206F180460192A6
:102D500006F58036019AB26822EA08082A4A9042AB
:102D600012D002F58062904210D002F5806290424B
:102D70000ED002F5806290420CD002F58062904243
:102D800014BF0522042206E0002204E0012202E032
:102D9000022200E0032202FA0CF242EA0802B260C8
:102DA0001A4AEE43D2F800C014F4803F14BF45EA3B
:102DB0000C0C06EA0C0CC2F800C0D2F804C014F4E3
:102DC000003F14BF45EA0C0C06EA0C0CC2F804C024
:102DD000D2F808C014F4801F14BF45EA0C0C06EAB0
:102DE0000C0CC2F808C0D2F80CC0A40254BF06EA0A
:102DF0000C0545EA0C05D56001333BE702B0BDE8A0
:102E0000F08700BF0038024000000240000401408B
:102E10002DE9F047002331FA03F26CD0012404FAC3
:102E200003F515EA010C64D003FA04F2032707FA4C
:102E300002F20668D2431640066023FA07F603F052
:102E400007094FF00F084FEA890908FA09F900EB62
:102E50008606D6F820A02AEA0909C6F820908668D6
:102E600016408660466826EA05054560C56803EA9F
:102E70000706B6002A4008FA06F5C26023F00302EE
:102E800002F1804202F58032D2F8089005EA090882
:102E9000DFF87090484511D009F58069484512D097
:102EA000164CA0420CD004F58064A0420AD004F570
:102EB0008064A04214BF0524042404E0002402E03E
:102EC000022400E03C46B440A04512D1946824EAB4
:102ED000050595600A4A6FEA0C04156825401560DF
:102EE000556825405560956825409560D5682C400B
:102EF000D46001338FE7BDE8F08700BF00080240CF
:102F00000004014000000240036919420CBF002088
:102F10000120704702B909048161704708B5044B6C
:102F20005969084202D0586101F07EF808BD00BF1F
:102F300000040140074A00F00700D36823F4E0636F
:102F40001B041B0C43F0BF6343F4003343EA00232C
:102F5000D360704700ED00E0164B70B5DB68C3F33B
:102F600002231D1DC3F10704042C28BF0424062DD1
:102F70004FF0010505FA04F48CBF033B002305FA6A
:102F800003F6013C214001FA03F3013E32401343B2
:102F900000284FEA031305DADAB2074B00F00F00FE
:102FA0001A5470BD00F16040DBB200F5614080F85A
:102FB000003370BD00ED00E014ED00E04209012394
:102FC00000F01F0003FA00F0014B43F822007047A5
:102FD00000E100E04209012300F01F0003FA00F0C5
:102FE000024B203243F82200704700BF00E100E0AE
:102FF0000138B0F1807F0AD2064B074AF0215860B1
:1030000082F823100020072298601A607047012080
:10301000704700BF10E000E000ED00E04209054B02
:10302000403253F8223000F01F0023FA00F000F085
:103030000100704700E100E04209012300F01F0099
:1030400003FA00F0024B603243F82200704700BFE1
:1030500000E100E0044B04281A680CBF42F00402AF
:1030600022F004021A60704710E000E0704708B5D3
:10307000FFF7FCFF08BD0000F7B50446002800F08C
:10308000AB80C36C73B9036580F84830544B1A6A3F
:1030900042F001021A621B6A03F001030193019BD3
:1030A00003F086FCE36CDB0600F19680E36C62685B
:1030B00023F4885323F0020343F00203E364494BF3
:1030C0004FF40077596821F440310A435A6097FA67
:1030D000A7F70225B7FA87F7666A95FAA5F5E36BB5
:1030E000B5FA85F5BB4006FA05F56169E068084365
:1030F000216A014341EA0302636B2A43102B02D089
:10310000A16B0B431A432368196811F0400F216922
:103110002ED1A069E5690243A068B1F5807F45EA38
:10312000000505D0012914BF00204FF4807000E095
:1031300008460543E06A012815D166B94FF460409E
:1031400090FAA0F0266BB0FA80F0013E864045F47C
:103150000065354307E0E06C40F02000E064206D3E
:1031600040F0010020655E681F48304028435860E9
:103170009D681E48B1F5807F05EA000042EA000024
:1031800098600DD1186B4FF0F87595FAA5F5A16A06
:10319000B5FA85F50139A94020F0F870014302E045
:1031A000196B21F0F87119639968114B0B40934228
:1031B00008D100202065E36C23F0030343F00103F2
:1031C000E3640AE0E36C23F0120343F01003E364CA
:1031D000236D43F001032365012003B0F0BD00BF60
:1031E0000038024000270140FF16FCFC8DF1FFC0B3
:1031F000FEFF80BF036870B59A68044656050D4609
:103200000BD59B68D80508D5E36C012043F020035B
:10321000E364002384F8483070BD00F041FA0646AC
:1032200023681A68920711D4691CFAD045B9E36C77
:10323000032043F00403E364002384F8483070BDA6
:1032400000F02EFA801BA842EAD9F0E7A26912B971
:103250006FF012021A60E26C42F40072E2649A6843
:1032600012F0405F01D0002070BD626A002AFAD1DE
:103270001A6B12F0F87F02D09B685B05F3D4E36C05
:1032800023F48073E364E06C10F48050EBD1E36CC2
:1032900043F00103E36470BD0368986D704700005C
:1032A00073B50023019390F84830012B00F09C8007
:1032B0004C680123062C80F8483002684FEA8405E8
:1032C0000B680BD82C44053C1F25A54003FA04F4D9
:1032D000166C26EA05052C43146434E00C2C0BD83C
:1032E0002C44233C1F25A54003FA04F4D66B26EAA0
:1032F00005052C43D46326E0122C0BD82C44413C0A
:103300001F25A54003FA04F4966B26EA05052C4315
:10331000946318E0182C0BD82C445F3C1F25A54063
:1033200003FA04F4566B26EA05052C4354630AE0BD
:103330002C447D3C1F25A54003FA04F4166B26EAB5
:1033400005052C431463092B0CD803EB430489684F
:103350000725A54001FA04F4566926EA05052C4321
:10336000546120E0132B0DD803EB43041E3C896805
:103370000725A54001FA04F4166926EA05052C4341
:10338000146110E01A2B0DD803EB43043C3C896810
:103390000725A54001FA04F4D66826EA05052C4362
:1033A000D46000E000BFA3F11002012A04D9002379
:1033B00080F84830184618E00D4A51680902F6D4E2
:1033C0005168102B41F400015160F0D1094B1A688B
:1033D000094BB2FBF3F30A2253430193019B002BE9
:1033E000E5D0019B013BF8E7022002B070BD00BFB1
:1033F000002701400000002040420F0073B5002369
:103400000193036804461A68520601D5002028E09B
:103410009A6842F001029A60134B1A68134BB2FB90
:10342000F3F303EB43030193019B13B1019B013BB6
:10343000F9E700F035F9064623681B6813F04005EC
:10344000E4D100F02DF9801B0228F5D9E36C84F853
:10345000485043F01003E364236D012043F001035F
:10346000236502B070BD00BF0000002040420F0085
:1034700090F8483010B5012B04462ED0012380F877
:103480004830FFF7BBFF58BBE36C23F4E06323F045
:10349000010343F48073E36423685A68520505D539
:1034A000E26C22F4405242F48052E264E26C6FF02B
:1034B000020112F480521CBF226D22F00602226526
:1034C000002284F848201960986810F0405006D116
:1034D0009A6842F080429A6010BD022010BD1046EA
:1034E00010BD38B5036804461A68520601D400209E
:1034F00038BD9A6822F001029A6000F0D1F80546C2
:1035000023681B685B06F2D500F0CAF8401B02284E
:10351000F6D9E36C012043F01003E364236D43F01C
:103520000103236538BD000038B5044600286DD07E
:10353000C36C43F00203C364FFF7D3FF05460028C2
:103540005FD123686FF01F021A605968304A0A4041
:103550005A6099682F4A0A409A6000BFDA6820468C
:1035600002F04042DA601A6902F040421A615A6978
:1035700002F040425A619A6922F47F6222F00F02FF
:103580009A61DA6922F47F6222F00F02DA611A6A24
:1035900022F47F6222F00F021A625A6A22F47F62DA
:1035A00022F00F025A629A6A22F47F6222F00F021E
:1035B0009A62DA6A22F47F6222F00F02DA62196BF1
:1035C000154A0A401A635A6B02F040425A639A6BDA
:1035D00002F040429A63DA6B02F04042DA631A6CFE
:1035E00002F040421A645A6C920D92055A640B4BD9
:1035F0005A6822F400025A6003F0FAF900232365A6
:10360000E364002384F84830284638BD012038BDE3
:1036100000003CF88CF0808000800FFE0027014005
:1036200090F8483010B5012B044611D0012380F8E2
:103630004830FFF756FF38B9E36C23F4885323F082
:10364000010343F00103E364002384F8483010BD14
:10365000022010BD10B50446FFF704FA4FF47A7348
:10366000B0FBF3F0FFF7C4FC4FF0FF30214600221F
:10367000FFF772FC002010BD08B50320FFF75AFCCD
:103680000020FFF7E7FF00F01FF9002008BD000051
:10369000024B1A6801321A60704700BF2C070020E5
:1036A000014B1868704700BF2C07002013B501902C
:1036B000FFF7F6FF0446FFF7F3FF019B001B98425C
:1036C000F9D302B010BD0000024B5A6822F002028A
:1036D0005A607047002004E00E4B1A6842F4807272
:1036E0001A6099680C4A0A409A601A6822F0885257
:1036F00022F001121A601A6822F480221A609A6875
:1037000022F47D029A600022DA60044B4FF00062DE
:103710009A607047003802400CC0FF8800ED00E05E
:103720000748084B4FF4E13C80E808100C220023C6
:103730008360C360036142618361C361FDF746BD7D
:1037400054080020003801400748084B4FF4964CBD
:1037500080E808100C2200238360C360036142618B
:103760008361C361FDF732BD1408002000480040AA
:1037700010B50368244A88B093421FD1234B02241A
:103780001A6A234842F480421A621B6A03A903F4AE
:1037900080430193019B4FF4C0630393012305937E
:1037A00003230693072307930494FFF75FFA25206A
:1037B00021460022FFF7D0FB252021E0154A934245
:1037C00020D1124B02245A6A134842F480225A62D2
:1037D0005B6A03A903F480230293029B4FF44063C6
:1037E000039301230593032306930723079304946C
:1037F000FFF73CFA272021460022FFF7ADFB2720E8
:10380000FFF7DCFB08B010BD003801400038024073
:1038100000000240004800400004024008B5114A80
:10382000036893420BD1104B10481A6A4FF4C061E1
:1038300022F480421A62FFF7EBFA25200DE00C4AD1
:1038400093420ED1084B0B485A6A4FF4406122F460
:1038500080225A62FFF7DCFA2720BDE80840FFF714
:10386000B9BB08BD003801400038024000000240EA
:10387000004800400004024008B5FFF709FFBDE81A
:103880000840FFF7F4BB00000148FEF777B900BF1E
:10389000EC0800200820FFF741BB00000148FDF7BD
:1038A0007BBD00BF540800200148FDF775BD00BF77
:1038B000140800204FF40060FFF730BB0148FEF70A
:1038C00077B900BFEC0800200F4B07B55A6A0320F8
:1038D00042F000425A625A6A02F000420092009A94
:1038E0001A6A42F001021A621B6A03F00103019393
:1038F000019BFFF71FFB00214FF0FF300A46FFF747
:103900002BFB03B05DF804FB003802400B480C4B66
:103910004FF4827C4FF4007280E80810002383602B
:10392000C360036143618261036208224362836270
:103930000A23C261C362FDF7F1BD00BF94080020F5
:10394000003001407FB502680F4B9A4218D103F551
:1039500084331A6A0D4842F480521A621B6A01A924
:1039600003F480530093009BE0230193022302930E
:10397000002303930323049305230593FFF776F9AC
:1039800007B05DF804FB00BF0030014000000240BA
:1039900070B5284B284D002485E818007F238CB093
:1039A000AB602846FF230126EB602C616C61AC61A3
:1039B000FEF742F902A9284601228DF808408DF849
:1039C00009408DF80A4003940494FEF784F901A994
:1039D000324628468DF804608DF805608DF8066043
:1039E0008DF80740FEF7E3F94FF4807305A93246DE
:1039F00028460B938DF814408DF815408DF816402D
:103A000006940794089409948DF82860FDF77AFFCE
:103A10004FF4007305A9324628460B938DF82860B1
:103A2000FDF770FF284621462246FEF739F80CB014
:103A300070BD00BF00280040EC08002008B50268F7
:103A40000F4B9A421BD14FF4800292FAA2F20D4B17
:103A5000B2FA82F2012143F822100320042100224D
:103A6000FFF77AFA0320FFF7A9FA292004210022A0
:103A7000FFF772FABDE808402920FFF79FBA08BD9A
:103A800000280040800647421123C3700023837042
:103A9000437003707047000000B595B000211422F8
:103AA00002A803F02EFA0021342207A803F029FA15
:103AB00000230093184B07A85A6A42F080525A62BA
:103AC0005B6A03F080530193019BFFF711F8012219
:103AD00002230A9207A8102207930B921093FEF775
:103AE000A5FA20B10D480E491A2202F0EBFD02A8FA
:103AF0006946FFF75DF80123029302A803230099AA
:103B00000393FEF705FE20B1044806491A2202F08D
:103B1000D9FD15B05DF804FB0038024054080020C0
:103B2000009A00081C9A0008084B07B55A6A42F030
:103B300080525A625B6A03F080530193019BFFF746
:103B40006BF8FFF75BF803B05DF804FB0038024048
:103B5000254B30B55A6A97B042F080525A625B6A80
:103B6000002403F080530193019B204B01251A6828
:103B700009A822F4C05242F400621A600A23099391
:103B800010230D93022312934FF4802314934FF4C8
:103B9000800315930C950E951394FEF747FA29466A
:103BA000032304A805930495069407940894FEF74C
:103BB000AFFD4FF4003302A803930295FEF77CF9A2
:103BC000FEF750FF4FF47A73B0FBF3F0FFF710FAF3
:103BD0000420FFF73FFA4FF0FF3021462246FFF75F
:103BE000BBF917B030BD00BF003802400070004084
:103BF0002DE9F04F824685B05A4952465A4803F0A3
:103C00009BF9594803F0C4F9574982B2574802F06A
:103C100059FD0025564FA8462E462C46554908EB1F
:103C20000A024FF0C20B0BFB021B1BF804308C4640
:103C3000532B17D0522B15D0462B0DD10BEB040371
:103C40005B780234002B00F08180022B7BD9032BA0
:103C50007CD10123484F7AE0582B05D10BEB0403AC
:103C600093F80190023471E0592B03D10BEB04035C
:103C70005E78F7E7422B0CD10BEB040300215A7856
:103C80000FFA89F09B7800913146033402F0C4F8B2
:103C90005CE0432B0BD10BEB04035B78023438461A
:103CA00031460BEB0402039302F09AF934E06C2BDB
:103CB0000BD10BEB04035B780234384631460BEB37
:103CC0000402039302F0AAF926E0722B0BD10BEB4E
:103CD00004035B780234384631460BEB040203934D
:103CE00002F0BAF918E0542B1AD10FFA89F03146D4
:103CF0000392CDF808C002F05BF8039ADDF808C023
:103D0000C22101FB02C222445378023438460BEB35
:103D10000401039302F030F9039B01331C4415E0C6
:103D2000452B13D1621C1BF80230522B06D108F12F
:103D3000010802345FFA88F8002507E0533B18BFFA
:103D40000123144603E00123094F00E0012301355C
:103D5000EDB22A0602D4002B7FF460AF05B0BDE8B7
:103D6000F08F00BFA4A200084907002054080020DB
:103D70000BF300085209002027B3000838B5164994
:103D800004460D22154802F09DFC154B18781D467F
:103D900008B902F011FC00232B7002F079F92046DB
:103DA000FFF726FF0F480821FFF7AEF801280DD1D5
:103DB0000C484FF40061FFF7A7F8012806D10A4B21
:103DC0000A4918700F22054802F07CFC012002F01D
:103DD00049FC074B1C7038BD389A00085408002075
:103DE0004407002000000240C9070020B6A20008D6
:103DF000D6070020F0B5082987B00746154604D13C
:103E00006E4B00241A78022A07E0B1F5006F40F0EB
:103E1000D2806A4B01241A78022A08BF1C7002F073
:103E200099FC7FB3002D4DD1654B664F1D70664BDD
:103E3000664E1A5DAAB1614A1D705D7002210123B0
:103E40003B701170337062482CB16249042202F059
:103E500039FC0420B0E06049042202F033FC052064
:103E6000AAE05E4B1D5502F04FFC5D4B400D43F840
:103E700024003D70357056480CB15A4900E05A494B
:103E8000042296E0594B012543F82400534B1D555D
:103E90004D4B1F705F7002F037FC514B400D43F8E3
:103EA0002400484B02221F70484B49481D70434B69
:103EB0001A702CB14E49042202F004FC38467BE013
:103EC0004C4933E0012D454E5BD1335D002B44D08E
:103ED0003B4B1B781BB13E484749052269E03370D4
:103EE0007370424B53F82430C01AA0F10903322BEF
:103EF00011D8374841490E2202F0E4FBBFF34F8F3F
:103F00003F4A404BD16801F4E0610B43D360BFF3FB
:103F10004F8F00BFFDE70338382812D82B4B2C48B1
:103F20001D70264B02251D702CB13749042202F06A
:103F3000C9FB284640E03549042202F0C3FB0320B8
:103F40003AE023480CB1324900E03249042202F041
:103F5000B9FB1D4B01221A552DE01D480CB12E490D
:103F600000E02E49042202F0ADFB00233370737091
:103F7000144B1B78FBB9144A01211155134A1370D5
:103F800019E0124B01221A700F4A25491378527812
:103F90002448009232780192727803950292049735
:103FA000224602F0C9FF1F4802F0F2FF1D4982B20B
:103FB000074802F087FB072007B0F0BD060000208D
:103FC000C9070020D80700203D0700200900002075
:103FD00054080020479A00084D9A00084507002021
:103FE000CC070020539A0008599A0008C00100200D
:103FF0005F9A0008659A00086B9A0008729A000898
:1040000000ED00E00400FA05829A0008889A000892
:104010008E9A0008949A00089A9A0008A09A0008BC
:10402000C6A20008490700200B4B012270B51A7088
:104030000A4B0546188040F2E9346EB23046FEF76E
:10404000EDFF38B1013C05D0054B30465D61FEF710
:10405000F3FFF2E770BD00BF340700205E260020AA
:104060000004014008B50268054B9A4207D11922A5
:104070000448054902F026FB044B01221A6008BDE2
:104080000048004054080020C79A0008CC010020D6
:1040900008B50268054B9A4207D119220448054920
:1040A00002F010FB044B01221A6008BD00480040DA
:1040B00054080020E29A0008CC010020F8B50E4C0C
:1040C00006460D4617460D484FF48051FEF71CFF7B
:1040D000012801D1013CF6D1304629463A464FF439
:1040E0007A73FDF79FF8044620B105480549102270
:1040F00002F0E8FA2046F8BD41420F0000040240F9
:1041000054080020FD9A000802484FF48041002224
:10411000FEF700BF0004024010B51A4986B00446FD
:104120000A22194802F0CEFA184B1948DA6901A997
:1041300042F00202DA61DB6903F002030093009BA4
:104140004FF480530193002302930393FEF78EFDF7
:104150000F484FF480410122FEF7DCFE0D4802219A
:104160000122FEF7D7FE0C48FFF702FB44B14FF4E3
:10417000C870FFF79BFAFFF7C7FF3220FFF796FAE8
:1041800006B010BD329B00085408002000380240E1
:1041900000040240001402401408002070B51C49BD
:1041A00086B00B221B4802F08DFA1B48FFF736FB46
:1041B0001A4802210022FEF7ADFE194B194CDA69AC
:1041C000032642F00202DA61DB69002503F00203F4
:1041D0000093009B20464FF4806301A9019302964F
:1041E0000395FEF743FD4FF40063204601A90193B8
:1041F00002960395FEF73AFD4FF41043204601A9BD
:10420000019302960395FEF731FD06B070BD00BF25
:104210003E9B0008540800201408002000140240AF
:104220000038024000040240F7B5134606460F4628
:10423000114801A90122FDF751F8D8B99DF80430C1
:10424000044633700C4801A901220523FDF746F806
:104250000134054618B99DF804303355F2E70328B8
:1042600002D13C60002005E004480549122202F01A
:1042700029FA284603B0F0BD140800205408002095
:104280004B9B00082DE9F34107460C461D4602F002
:104290003BFA460DDFF878802046D8F8003001A9B7
:1042A0004FF448725B68FFF7BFFF154B1870A0B959
:1042B00062787B789A4203D122783B789A421BD06D
:1042C00002F022FAC6EB5050A842E3D90D480E493D
:1042D000182202F0F7F901200EE0D8F800305B68F0
:1042E00002F012FAC6EB5050A842D3D9054807494C
:1042F000222202F0E7F9022002B0BDE8F08100BFFF
:1043000061260020540800205F9B0008799B00086C
:104310001408002038B502F01DFA0B4C00F0030021
:10432000C5012A460949204602F006FE204602F051
:104330002FFE214682B2064802F0C4F92846BDE8A5
:104340003840FFF7B3B900BF4907002005A30008B4
:1043500054080020014B01221A707047D507002035
:104360002DE9F843DFF8D4802B4D2C4ED8F80030DF
:1043700040462B4909225B68FFF7A0FE31462846DC
:1043800040F6B832FFF750FF264CDFF8B4902B46CA
:10439000326889F800002449204602F0CDFD20460D
:1043A00002F0F6FD214F82B22146384602F08AF92A
:1043B0000520FFF77BF940461D490322FFF77EFEEB
:1043C0003146284640F6B832FFF72EFF2B463268BA
:1043D00089F800001749204602F0AEFD204602F0A1
:1043E000D7FD214682B2384602F06CF9284602F029
:1043F0003DFB00F30705EAB20F49204602F09CFDA1
:10440000204602F0C5FD214682B2384602F05AF934
:1044100068B2BDE8F88300BF5C2500204C0900208D
:1044200016A300084907002020A300085408002014
:1044300039A300083DA3000851A300081408002078
:10444000612600202DE9F041234E244C3368244D91
:1044500064205B68FFF72AF9304622490922FFF7FA
:104460002DFE2946204640F6B832FFF7DDFEDFF884
:104470008C801D4F0A2288F800001C49384602F043
:1044800021F92968204602F049FA0520FFF70EF9C4
:10449000304617490322FFF711FE294640F6B8328D
:1044A0002046FFF7C1FE88F80000204602F0DEFA41
:1044B000104C00F307052A460F49204602F03CFD48
:1044C000204602F065FD214682B2384602F0FAF835
:1044D00068B2BDE8F08100BF140800205C25002010
:1044E0004C09002067A300085408002071A30008AD
:1044F00039A30008490700207CA30008612600209A
:104500002DE9F0437A4E89B07A487B49112202F0B6
:10451000D9F833783BB9794A142013705370FFF7F8
:104520002DFC012302E00F2B01D801333370744CB2
:10453000744F0120FFF7F0FD734821463A464FF4CF
:10454000A073FFF79FFEA146804600284AD11022A3
:1045500068486E4902F0B6F83968204602F0DEF984
:104560006B4BA2786B4D1A70E2785A70FFF76AFFB6
:104570002870FFF767FF2870674D032195F802C088
:1045800095F803E06B782A78C0B28DE800508DF87A
:104590001C108DF81D0002910390604960488DF851
:1045A00019308DF81AC08DF81BE08DF8182002F034
:1045B000C3FC5B4802F0ECFC594982B24D4802F062
:1045C00081F84046062106AA4346CDF8008000F057
:1045D00005FA544821463A464FF4A073FFF752FEBD
:1045E000A0B33BE03378013B092B27D8DFE803F089
:1045F00005090F171C1C1C1C2121FFF7CFFD1420DF
:1046000002E0FFF7CBFD3C2002F0D6F86CE0FFF7AC
:10461000C5FD1720FFF7B2FB4FF41670F4E7FFF764
:10462000BDFD4FF4E160EFE7FFF7B8FD4FF46160C7
:10463000EAE7FFF7B3FD45F26040E5E7FFF7AEFDBF
:104640004AF6C000E0E7013004280ED009EB000371
:104650001A7B2B5C2A4C9A42F5D045E0254832491A
:10466000282202F02FF81E20CEE72379022B2ED12C
:1046700020482E49102202F025F8227C1F4B0820EA
:104680001A70627C00245A702146234605AA0094C1
:104690008DF814408DF8154000F0A0F92449154814
:1046A000142202F00FF8234B152201201A703470E7
:1046B00000F080FA0F4820491E2202F003F800940F
:1046C0000720214605AA012300F088F90CE00D2BF4
:1046D0000AD108481622194901F0F4FF154B182297
:1046E00001201A7000F066FA09B0BDE8F08300BF3F
:1046F00048070020540800209D9B0008D90700208F
:104700005C2500204C090020BB0100208BA3000881
:104710000700002060260020300700209CA300082E
:104720004907002004000020109C0008B09B0008EE
:10473000C29B0008C8010020D89B0008F89B000815
:104740002DE9F3418D4C80460E4617468C49227860
:104750008C4802F0F1FB8B4802F01AFC894982B2C6
:10476000894801F0AFFF2378033B012B02D80120D9
:10477000FFF7D2FC23780F2F03F1010323701CBF36
:10478000824B1F7082480021FEF7BEFB0028F9D142
:10479000B6B18048804901AA4FF4A073FFF772FDBB
:1047A00038B979487D491A2201F08CFFFFF7B2FD34
:1047B00006E075487A49212201F084FF0A2032E0A0
:1047C000784D794879492A78FFF778FCA8B16E4886
:1047D00077491C2201F076FF072F02D01220FFF745
:1047E000CDFAFFF7DBFCFFF795FD0120FFF794FC06
:1047F0006D486E492A78FFF761FCB8F1000F15D0BB
:104800002378DFF89481002B6A48414601AA14BF3F
:1048100030231023FFF736FD0546002854D009E069
:10482000FFF7BCFC142001F0C7FFA3E0C820FEF78F
:104830003DFF9FE054486049162201F043FF237872
:10484000013B0A2B00F2968001A252F823F000BF30
:104850007D4800088D480008894800082148000864
:1048600091480008914800089F48000891480008B6
:104870009148000891480008BF480008072F07D05A
:104880001220FFF77BFA03E0FFF788FCFFF742FDF9
:104890003E4B012031461A78FFF752FF6AE03A4852
:1048A0004649262201F00EFF454B17221A70FFF7EA
:1048B00075FC012000F07EF94FF41670B3E7002379
:1048C0002370FFF71DFE55E098F80430082B30D117
:1048D0000E222D483B49257001F0F4FE98F80A207D
:1048E00098F80B3053EA022301D0FFF757FC344A03
:1048F000354C13781646172B01D0112B0AD1334AA9
:1049000015783DB920483249142201F0DBFE35709C
:10491000607808E004EB03135878FF2805D01B4BA0
:104920001B78072B01D0FFF729FA002000F0F6FAD8
:1049300020E00C2B15D127490F2225701248204C5E
:1049400001F0C0FEFFF72AFC11232846237000F077
:10495000E5FA22781C4B03EB02135878FFF70EFAA6
:1049600008E009481C492D2201F0ACFE284601212F
:1049700000F018FA02B0BDE8F08100BFD7070020B0
:10498000C2A3000849070020540800203C0700206B
:1049900000040240BB0100205C2500203A9C000876
:1049A000569C000851090020140800200C09002022
:1049B000799C0008D9070020259D0008FD9C00086F
:1049C000C8010020979C00080B0000204807002029
:1049D000A79C0008BD9C0008CE9C00082DE9F04172
:1049E000164D174C0646287801F10A0720706878A2
:1049F000144D60702878FFB2A070687800259DF88B
:104A000018C0E07026716571A571E5712572677235
:104A100059B90D4A002117700C4A184611703246D8
:104A20006146BDE8F041FFF78BBE8D42F1DA12F826
:104A30000580601980F80A800135F6E7070000203C
:104A40000C090020D907002051090020D7070020B9
:104A50002DE9F043ADF5057D04AF4D494FF40072EB
:104A60008146384602F044FA002402238DF80C30C7
:104A70008DF80D408DF80E408DF80F4001F072FF5B
:104A8000802101224348FEF745FA6420FEF70EFE1E
:104A90004148FEF7EDFC064668B140491122404806
:104AA00001F010FE3C48FEF73FFD3A4880212246C7
:104AB000FEF730FA66E038483221FEF79BFB0546E8
:104AC00088B138491622364801F0FCFD3248FEF71D
:104AD000A7FD3148FEF728FD2E4880213246FEF71B
:104AE00019FA30464FE02C48FEF7D6FB80462A489C
:104AF000FEF796FD2848FEF717FD4FEA18262548D1
:104B000080212A46FEF706FA37F81640642294FB05
:104B1000F2F302FB1342244900922448424602F079
:104B20000BFA224802F034FA204982B21C4801F004
:104B3000C9FDB9F1000F25D08DF80D60FFF782FC9B
:104B40008DF80E00FFF70CFC9DF80E10C0B29DF81A
:104B50000D309DF80C208DF80F0000910190144944
:104B6000124802F0E9F9114802F012FA0F4982B234
:104B70000B4801F0A7FD00950920042103AA012399
:104B8000FFF72CFF20460DF5057DBDE8F08300BF43
:104B90003E9D000800040240C82F00203E9F0008F0
:104BA00054080020519F0008D5A3000849070020A1
:104BB000FAA30008F0B5364F85B0002335493A789E
:104BC000064635488DF80C308DF80D3002F0B4F9FA
:104BD000314802F0DDF9314D82B22F49304801F001
:104BE00071FD2C7874B9204601F0E6FC28B120460E
:104BF00001F0FEFB01232B7004E02948294919220A
:104C000001F060FD3B78284C1B01E2189278FF2AE6
:104C100023D016B30120FFF77FFA1D4B00261B7827
:104C2000324604EB03139B7804AD20491A488DF8F3
:104C30000D3005F8046D02F07FF9174802F0A8F96D
:104C4000154982B2164801F03DFD00960920022167
:104C50002A460123FFF7C2FE05E023445878FF28C7
:104C600001D0FFF78BF83B7804EB0314E37AFF2BBA
:104C70000CD00B4813220E4901F024FD044B1A7886
:104C8000094B03EB0213D87A01F096FD05B0F0BD95
:104C9000C801002017A4000849070020440700208D
:104CA00054080020699F00080B00002030A4000871
:104CB000849F000838B52F490E222F4801F002FDCD
:104CC0002E490A7B0B46532A25D19A7B497B522ACF
:104CD00008BFDC7B2A4A0C44C225587905FB042412
:104CE0000022D5B2854204D29D182D7CA5540132F4
:104CF000F7E7244B244C1A7801321A7023788B4240
:104D000037D11D482149262201F0DCFC2078BDE87E
:104D10003840FFF733B8412A1ED14A7B1C4C1D494D
:104D20001D48227002F008F91B4802F031F91A49B7
:104D300082B2114801F0C6FC184B194A197802EBEF
:104D40000112507A2178884213D1927A01201A7088
:104D5000BDE83840FFF72EBF4D2A0AD1104A497BE3
:104D600002EB011100229818407B88540132102A6E
:104D7000F9D138BD999F0008540800205C25002017
:104D80005209002035070020D6070020A99F0008FF
:104D9000CA07002047A4000849070020C8010020D6
:104DA0000B00002030B54E4B85B00D4608B10022F7
:104DB0001A701A784B494C4802F0BEF84A4802F083
:104DC000E7F8494982B2494801F07CFC4848494922
:104DD00003AA3023424CFFF755FA08B1002D67D0E3
:104DE000444B00241B798DF80840052B8DF80940B1
:104DF0003E4807D14049272201F064FC0398FFF7A1
:104E000059FF35E00B2B18D13C491E2201F05AFC0A
:104E10003B493C4B0A780AB10C701622002408204A
:104E20001A7021460DEB000200942346FFF7D6FDD1
:104E30002046FFF7BFFE204637E0062B0FD1324950
:104E4000252201F03FFC08200DEB000200942146D2
:104E50002346FFF7C3FD0120FFF7FAFD3DE00E2BCF
:104E60000FD12A492C2201F02DFC1520FEF786FFD8
:104E70000820009421460DEB00022346FFF7AEFD0B
:104E8000D9E7082B04D122491C2201F01BFCD2E7F0
:104E900020492C2201F016FC08200DEB00020094A2
:104EA00021462346FFF79AFD012000F037F814E071
:104EB0000E4819491D2201F005FC2378032B06D862
:104EC0000133284629462370FFF76CFF05E0257063
:104ED000FFF764F91E2001F06FFC05B030BD00BF84
:104EE0004707002066A40008490700205408002056
:104EF000D90700205C250020D19F0008FA9F0008F8
:104F00000A000020C80100201AA0000841A00008E3
:104F10006FA000088DA00008BBA0000810B51C49B8
:104F200004460C221B4801F0CDFB44B119481A4934
:104F3000132201F0C7FBFFF731F91E2023E0174BC6
:104F40009C7ADB7A43EA0424154B64009C420BD81C
:104F50005CB910481349222201F0B4FB214601201C
:104F6000BDE81040FFF71EBF1C460F4922460F4800
:104F700001F0E2FF0D4802F00BF80C4982B205483F
:104F800001F0A0FB2046BDE8104001F015BC00BFB9
:104F9000DAA0000854080020E8A000085C250020E2
:104FA00080510100FDA000087FA4000849070020EF
:104FB0007FB51F4B1C7814B1FFF7A2FA36E01D4BEA
:104FC0001B78042B01D0072B05D1012000210F22D3
:104FD000FFF7B6FB2AE0184D184E2B78184806EB61
:104FE0000313DB7AFF2B0FD01649162201F06AFB60
:104FF0000120FFF791F82B78012006EB0316337B95
:105000002B70FFF7D7FD11E00F490A2201F05AFB80
:105010000120FFF781F800940720214603AA01230D
:105020008DF80C408DF80D40FFF7D8FC04B070BD32
:1050300048070020D7070020C80100200B000020EF
:105040005408002021A1000839A100082DE9F347E8
:1050500007460020FFF7FCFC80460120FFF75CF8C4
:105060007C4C7D4D002F6BD023687C490922204663
:105070005B68FFF723F8294640F6B8327848FFF717
:10508000D3F8784F0D2238707749784801F01AFB31
:105090002968734801F042FC0A20FEF707FB7449B7
:1050A00003222046FFF70AF8C820FEF7FFFA23681C
:1050B0007049092220465B68FFF700F8294640F650
:1050C000B8326748FFF7B0F80B2238706A49674872
:1050D00001F0F8FA2968624801F020FC0520FEF78B
:1050E000E5FA634903222046FEF7E8FF0520FEF7B4
:1050F000DDFA23686149092220465B68FEF7DEFF7E
:10510000294640F6B8325648FFF78EF81522387017
:105110005B49564801F0D6FA2968514801F0FEFB78
:105120000520FEF7C3FA524903222046FEF7C6FFC8
:105130000520FEF7BBFA4D485249142201F0C2FA8D
:105140002368454D464C5B684F4821462A4644F645
:105150002063FFF797F8E0B9E378A6781022434878
:105160004A4943EA062601F0ADFA2046296801F0D3
:10517000D5FB47493246474801F0DEFE454801F07D
:1051800007FF444982B2394801F09CFA4FF0010A06
:1051900006E036484049162201F094FA4FF0000A22
:1051A000FFF750F9DFF820913C4C89F80000FEF73A
:1051B000F5FF642398FBF3F703FB17883849434650
:1051C0003A46344801F0B8FE324801F0E1FE314978
:1051D00082B2264801F076FA324B33491A684325E9
:1051E000324801F0A9FE84F8245C04F63A40CDF878
:1051F00000802F4903223B4601F09EFE84F83C5C70
:10520000BAF1000F12D099F9003004F6594029493B
:1052100032460BB1124B00E0274B01F08DFE4323C9
:1052200084F85B3C422384F85D3C06E004F6594078
:10523000224901F0A5FE84F85B5C2149214801F078
:105240009FFE4323102084F8763C02B0BDE8F0476F
:10525000FEF794BD140800204C09002093A4000818
:105260005C250020612600209DA400085408002031
:1052700039A30008ABA40008B5A40008C1A4000825
:10528000CBA4000845A10008BB010020E1A4000850
:10529000F2A40008490700205BA100085209002081
:1052A00000A5000860A2000819A5000872150020DA
:1052B0002BA500084EA5000863A500086BA50008F3
:1052C00086A50008C615002060260020F8B5FEF768
:1052D00091FD064660493246604801F02DFE5F4868
:1052E00001F056FE5D4982B25D4801F0EBF9072EF0
:1052F00000F0B1805B4F3C783D461A2C08D101206C
:1053000013243C70FEF708FFFEF748FF204658E0E4
:10531000132C33D152485449172201F0D3F9B31E4C
:10532000DBB2012B514B02D800221A7029E0042E67
:1053300002D101221A7015E0052E1BD11B7883B112
:1053400047484B49142201F0BDF9FEF727FF00F052
:10535000F9FA484B00201860FEF710FD19233B7046
:10536000F8BD0122444B4FF47A701A70BDE8F84042
:10537000FEF79CB900221A70387867E0182C06D125
:1053800000223E4B1A70BDE8F840FFF7B9B8192C5F
:105390001BD1112232483A4901F094F9023E354BB3
:1053A000F6B2012E8ABF1A68002201321A601A680A
:1053B000252A02D12F4A002111602F4A0121187895
:1053C0001170BDE8F840FEF7D9BC052E23D8DFE800
:1053D00006F0030D1B1B08122A4B03EB04131B7969
:1053E0000DE0284B03EB0413DB7808E0254B03EBBF
:1053F0000413DB7903E0234B03EB04131B7AFF2B2D
:1054000013D02B70012311E010233B700020BDE866
:10541000F840FFF71BBE212211481B4901F052F949
:105420003B78184A1B01D35C3B7000232A78A242C8
:1054300004D0BDE8F8400120FFF7BCBB5BB90848C9
:1054400012491E2201F03EF9064B1878FEF796FC31
:10545000094B01221A70F8BDA0A5000849070020D9
:1054600054080020C801002073A10008D4070020C0
:105470008CA10008400700200900002048070020F8
:10548000A2A100080B000020B5A10008D8A10008C7
:10549000284B294A03F1100153F8040B8B4242F8C0
:1054A000040BF9D1254B264A03F1100153F8040BE4
:1054B0008B4242F8040BF9D1224B234A03F110012D
:1054C00053F8040B8B4242F8040BF9D11F4B204ACE
:1054D00003F1100153F8040B8B4242F8040BF9D18D
:1054E0001C4B1D4A03F1100153F8040B8B4242F888
:1054F000040BF9D1194B1A4A03F1100153F8040BAC
:105500008B4242F8040BF9D1164B174A03F11001F4
:1055100053F8040B8B4242F8040BF9D1134B144A95
:1055200003F1100153F8040B8B4242F8040BF9D13C
:10553000704700BF1BA600080B01002084A20008D2
:105540003B01002094A200081B01002074A2000867
:105550004B01002064A200085B0100202BA600087C
:105560006B0100203BA600087B0100200BA6000871
:105570008B0100202DE9F041A44E8CB0FEF77CF8A1
:10558000FEF7E6FAFEF788FAFEF7CEFA00F012FB15
:1055900001F0E8F9FEF7FCF9FEF7C2F8FEF7D4F8DF
:1055A00001F09EF830460024FEF76EFA0125E02354
:1055B000974807A90793089509940A94FDF756FBA5
:1055C000944840212246FDF7A5FC20212A46914817
:1055D000FDF7A0FC0520FEF769F88D482021224642
:1055E000FDF798FC8A4840212246FDF793FC884845
:1055F00080212246FDF78EFC854810212A46FDF7C2
:1056000089FC84484FF480512246FDF783FC814891
:105610004FF400512246FDF77DFC7E484FF4804157
:105620002246FDF777FC7C4802212246FDF772FCFA
:10563000784880212246FDF76DFCFEF745F8774853
:105640007749102201F03EF8764B77491A6877487F
:1056500001F072FC754801F09BFC744982B26F48FE
:1056600001F030F800F00CF9FFF712FF01F022F81A
:105670006F4804216F4A00F0B3FC6D4822216E4A46
:1056800000F0AEFC40216D4A694800F0A9FC2046BC
:1056900000F0E8FF2846FFF7D9FCFEF77FFDB17860
:1056A0007378327800918DF81610F1785F48019187
:1056B0000321029162498DF8153009788DF8142084
:1056C0000391604901F038FC584801F061FC5749EA
:1056D00082B2524800F0F6FFFEF760FD4F485A498B
:1056E000092200F0EFFF4D48FEF798F828460146E2
:1056F000FDF7A0FA554D2B784BB1FEF7CDF9474891
:10570000FEF736F8454852490E2200F0DBFF514CB7
:10571000227842B30920FDF75DFC4F4F2820FDF7AA
:1057200059FC1420FDF7C2FF39883948FDF7ECFB1E
:105730004A4E02464A4930703C4801F0FDFB3B4866
:1057400001F026FC394982B2344800F0BBFF012049
:1057500039883278FFF7BAFD424B187801F09EF88D
:105760000023237029E0404B197841B11A702B486F
:105770003E49092200F0A6FFFFF71AFC1DE02F7832
:10578000DFB900F0C1FF3A4E4FEA50583760336836
:10579000012B12DC374A52F8233053B1C3EB080314
:1057A000082B06D92C4B002019882C4B1A78FFF7B0
:1057B0008DFD336801333360E9E72B78002B99D0F6
:1057C00000232C4A002542F823500133012BF8DD39
:1057D000274A1360234B187801F060F80A22264903
:1057E0000E48257000F06EFFFEF7D8FC1420FDF780
:1057F0005DFF0A48FEF712F8FEF796F91F4B0120ED
:105800001A6822F002021A6071E700BF3007002018
:10581000000002400004024000140240540800202E
:10582000F8A1000860A20008A8A500084907002008
:1058300027B30008B6A50008BBA50008C5A5000849
:1058400060260020D1A500080AA200080900002057
:1058500015A20008340700205E2600205C260020E8
:10586000F3A5000806000020D507002025A20008A7
:1058700038070020CC07002030A2000810E000E02C
:10588000F8B5254C2549204601F07AFB244904F15E
:10589000C20001F075FB234B23491E6804F5C2705A
:1058A000324601F049FB4327204904F5CF7084F8C4
:1058B000887101F065FB1E4904F2462001F060FB8F
:1058C0001C4904F5427001F05BFB1B4904F2CA302D
:1058D00001F056FB194904F28C4001F051FB3246AD
:1058E000114904F24E5001F027FB04F5AD60144954
:1058F00084F8527501F044FB04F5C2620023E15CB8
:10590000FF2904BF0021E1540133802BF7D1C234B9
:105910009442F3D1F8BD00BF341600204BA6000816
:1059200077A6000860A2000819A500089EA6000836
:10593000FBA600082EA7000874A700089CA7000873
:10594000CEA7000808B55149514801F019FB51494B
:10595000514801F015FB5149514801F011FB5149E3
:10596000514801F00DFB5149514801F009FB5149E3
:10597000514801F005FB5149514801F001FB5149E3
:10598000514801F0FDFA5149514801F0F9FA4B49EB
:10599000504801F0F5FA5049504801F0F1FA5049E9
:1059A000504801F0EDFA5049504801F0E9FA5049E9
:1059B000504801F0E5FA5049504801F0E1FA5049E9
:1059C000504801F0DDFA5049504801F0D9FA5049E9
:1059D000504801F0D5FA5049504801F0D1FA5049E9
:1059E000504801F0CDFA5049504801F0C9FA5049E9
:1059F000504801F0C5FA5049504801F0C1FA5049E9
:105A0000504801F0BDFA5049504801F0B9FA5049E8
:105A1000504801F0B5FA5049504801F0B1FA5049E8
:105A2000504801F0ADFA5049504801F0A9FA5049E8
:105A3000504801F0A5FA5049504801F0A1FA5049E8
:105A4000504801F09DFA5049504801F099FA5049E8
:105A5000504801F095FA5049504801F091FA5049E8
:105A6000504801F08DFA5049504801F089FA084A2F
:105A70004F490023D05CFF2804BF0020D0540133DD
:105A8000802BF7D1C2328A42F3D108BD27A8000883
:105A9000520900205CA80008140A00209DA80008F4
:105AA000D60A0020DCA80008980B002017A90008DF
:105AB0005A0C002079A900081C0D0020A6A9000896
:105AC000DE0D0020D6A90008A00E00203BAA000889
:105AD000620F00202410002093AA0008E610002086
